:1000000045C0000053C0000051C000004FC00000B8
:100010004DC000004BC0000049C0000047C00000B8
:1000200045C0000043C0000041C000003FC00000C8
:100030003DC000003BC0000039C0000037C00000D8
:1000400035C0000033C0000031C000002FC00000E8
:100050002DC000002BC0000029C0000027C00000F8
:1000600025C0000023C0000021C000001FC0000008
:100070001DC000001BC0000030C0000017C0000001
:1000800015C0000013C0000011C0000011241FBEE5
:10009000CFEFD0E1DEBFCDBF21E0A0E0B1E001C0F5
:1000A0001D92A130B207E1F702D048C0A9CF02D01B
:1000B0007894FFCF1092980083E38093990088E9A9
:1000C00080939A0086E080939D00089590919B0014
:1000D00095FFFCCF80939C0008951F920F920FB65E
:1000E0000F9211240BB60F922F933F934F935F9370
:1000F0006F937F938F939F93AF93BF93EF93FF93F0
:1001000080919B0088233CF480919C0080930001A7
:1001100080910001DBDFFF91EF91BF91AF919F9143
:100120008F917F916F915F914F913F912F910F90A0
:100130000BBE0F900FBE0F901F901895F894FFCF35
:00000001FF
