S0110000696E746572727570742E7372656326
S113000045C000007DC00000D6C0000054C0000000
S113001052C0000050C000004EC000004CC00000A0
S11300204AC0000048C0000046C0000044C00000B0
S113003042C0000040C000003EC000003CC00000C0
S11300403AC0000038C0000036C0000034C00000D0
S113005032C0000030C000002EC000002CC00000E0
S11300602AC0000028C0000026C0000024C00000F0
S113007022C0000020C000001EC000001CC0000000
S11300801AC0000018C0000016C0000011241FBED2
S1130090CFEFD0E1DEBFCDBF11E0A0E0B1E0E4E3FB
S11300A0F2E000E00BBF02C007900D92A03AB10746
S11300B0D9F7A8D0BDC0A4CFEAE6F0E08081836080
S11300C0808389B7816089BF80818C60808389B790
S11300D0826089BF089520E030E00EC048B381E01B
S11300E090E0022E02C0880F991F0A94E2F78095CF
S11300F0842388BB2F5F3F4F283031057CF308955C
S11301001F920F920FB60F9211240BB60F922F93DA
S11301103F934F935F936F937F938F939F93AF938B
S1130120BF93CF93DF93EF93FF93C0E0D0E02BC056
S1130130D2DF20E030E01AC048B3FE01EE0FFF1F0B
S1130140EE0FFF1FEE0FFF1FE20FF31FEE0FFF1F57
S1130150E050FF4F80819181022E02C0880F991FC9
S11301600A94E2F7842B88BB2F5F3F4F2830310578
S11301701CF32FEF85EA9EE0215080409040E1F788
S113018000C000002196CA30D10594F2FF91EF918E
S1130190DF91CF91BF91AF919F918F917F916F919B
S11301A05F914F913F912F910F900BBE0F900FBE17
S11301B00F901F9018951F920F920FB60F92112453
S11301C00BB60F922F933F934F935F936F937F934D
S11301D08F939F93AF93BF93EF93FF937CDFFF9134
S11301E0EF91BF91AF919F918F917F916F915F91AB
S11301F04F913F912F910F900BBE0F900FBE0F9018
S11302001F90189520E030E00DC047B381E090E0E6
S1130210022E02C0880F991F0A94E2F7842B87BB31
S11302202F5F3F4F2830310584F346DF7894FFCFAA
S1070230F894FFCF6C
S113023400000100010000000000000000000000B4
S113024401000100000001000100000001000000A1
S11302540100010001000100000000000100000091
S11302640000010001000000000001000100000082
S11302740100000001000100000001000100000071
S11302840100000001000100010001000100000060
S11302940100010001000000000001000000000052
S11302A4010001000100010001000100010000003F
S11302B40100010001000100000001000100000030
S11302C40100010001000100010001000000000020
S9030000FC
